:020000040800F2
:1000000058070024390300081B220008812100083A
:1000100019220008C1050008392E00080000000060
:10002000000000000000000000000000952600080D
:10003000C3050008000000001D22000897260008E4
:100040005303000853030008530300085303000838
:100050005303000853030008530300085303000828
:100060005303000853030008530300085303000818
:100070005303000853030008530300085303000808
:1000800053030008530300085303000853030008F8
:1000900053030008530300085303000853030008E8
:1000A00053030008530300085303000853030008D8
:1000B00053030008530300085303000853030008C8
:1000C00053030008530300085303000853030008B8
:1000D00053030008530300085303000853030008A8
:1000E00053030008530300080000000053030008F6
:1000F0005303000853030008530300085303000888
:100100005303000853030008530300085303000877
:100110005303000853030008530300085303000867
:100120005303000853030008530300085303000857
:100130005303000853030008530300085303000847
:1001400000000000000000000000000000000000AF
:100150005303000853030008530300085303000827
:100160005303000853030008530300085303000817
:100170005303000853030008530300085303000807
:1001800053030008530300085303000853030008F7
:1001900053030008530300085303000853030008E7
:1001A00053030008530300085303000853030008D7
:1001B00053030008530300085303000853030008C7
:1001C00053030008530300085303000853030008B7
:1001D00053030008530300085303000853030008A7
:1001E0005303000853030008530300085303000897
:1001F0005303000853030008530300085303000887
:100200005303000853030008530300085303000876
:100210005303000853030008530300085303000866
:1002200053030008530300085303000800000000B4
:1002300053030008530300080000000053030008A4
:100240005303000853030008530300085303000836
:100250005303000853030008530300085303000826
:100260005303000853030008530300085303000816
:100270005303000853030008530300080000000064
:1002800053030008000000005303000800000000B2
:10029000000000005303000800F002F800F03CF8F2
:1002A0000AA090E8000C82448344AAF10107DA45D1
:1002B00001D100F031F8AFF2090EBAE80F0013F0E7
:1002C000010F18BFFB1A43F00103184774300000F8
:1002D00094300000103A24BF78C878C1FAD8520789
:1002E00024BF30C830C144BF04680C6070470000B0
:1002F0000023002400250026103A28BF78C1FBD82F
:10030000520728BF30C148BF0B6070471FB502F0CD
:10031000FDFF1FBD10B510BD00F00CF91146FFF731
:10032000F5FF02F02DFF00F03EF903B4FFF7F2FFF6
:1003300003BC02F0F0FE000009488047094800476E
:10034000FEE7FEE7FEE7FEE7FEE7FEE7FEE7FEE785
:10035000FEE7FEE704480549054A064B70470000E2
:10036000412700089902000858010024580700247A
:100370005803002458030024704753EA020C00F08D
:1003800069802DE9F04B4FF00006002B1FBFB3FA38
:1003900083F503FA05F424FA05F65E4012BF16430E
:1003A000B2FA82F502FA05F4C5F120051EBF22FA61
:1003B00005FC44EA0C04203556EA044C4FEA144488
:1003C00018BF641C4FF000084FF00009904271EB19
:1003D000030C39D3002919BFB1FA81F701FA07F6E6
:1003E000B0FA80F700FA07F6C7F120071EBF20FA1F
:1003F00007FC46EA0C062037B6FBF4FCA7EB050722
:10040000103F07F01F0BCBF120060CFA0BFB2CFA68
:1004100006F644BFB3460026202FA4BF5E464FF029
:10042000000B5BEA060C08BF4FF0010B19EB0B0940
:10043000ABFB027C48EB0608C01B06FB02CC0BFBA7
:1004400003CC71EB0C01C1E70B460246414648461E
:10045000BDE8F08B13B54FF000004FF00001AFF393
:100460000080BDE81C4070470FB4044910B503AAD2
:10047000029800F031F810BC5DF814FB1400002461
:100480004FF0000200B5134694469646203922BF2D
:10049000A0E80C50A0E80C50B1F12001BFF4F7AF78
:1004A000090728BFA0E80C5048BF0CC05DF804EB5A
:1004B000890028BF40F8042B08BF704748BF20F8C8
:1004C000022B11F0804F18BF00F8012B70477047C6
:1004D0007047704770470000074B70B50D467B446E
:1004E00000F011F80446284600F020F810B14FF053
:1004F000FF3070BD204670BD8B2C000001694A1C86
:1005000002610878704700B58FB0CDE90131002154
:10051000059105497944CDE903101146684600F07C
:100520002EF80FB000BD0000E5FFFFFF007B00F0DC
:1005300080007047754600F03FF8AE4605006946FA
:10054000534620F00700854618B020B5FFF702FF9C
:10055000BDE820404FF000064FF000074FF00008C4
:100560004FF0000B21F00701AC46ACE8C009ACE845
:10057000C009ACE8C009ACE8C0098D4670472DE958
:10058000F04106460024D6E90170F5688046304601
:1005900003E04146B847641C3046A8470028F8D11C
:1005A0002046BDE8F08110B50446AFF30080204638
:1005B000BDE81040FFF7B9BE00487047F8000024BE
:1005C000FEE770472DE9F84F6F4D00224FF001090B
:1005D0004FF0030E4FF00F0B0B6809FA02F803EA15
:1005E0000803434574D14C68022C01D0122C0FD162
:1005F000D4080E69570700EB8404A246246AFF0E54
:100600000BFA07FCBE4024EA0C042643CAF820601B
:100610000F79540006680EFA04FC07F0030726EA77
:100620000C06A740374307604E68012E05D0022E06
:1006300003D0112E01D0122E0FD18668CF6826EA82
:100640000C06A7403743876046680F7926EA0806FC
:10065000C7F30017974037434760C7688E6827EA9B
:100660000C07A6403E43C6604C68E40030D5474CBA
:10067000266846F002062660246822F0030606F18A
:10068000B04604F0020400949407270FD6F80844FB
:10069000DFF8FC800BFA07FC404524EA0C0402D189
:1006A0004FF0000C41E0DFF8ECC0604502D14FF0A4
:1006B000010C3AE0DFF8E0C0604502D14FF0020CD7
:1006C00033E0DFF8D8C0604503D14FF0030C2CE0D5
:1006D00053E0DFF8CCC0604502D14FF0040C24E0B9
:1006E000DFF8C0C0604502D14FF0050C1DE0DFF817
:1006F000B8C0604502D14FF0060C16E0DFF8ACC080
:10070000604502D14FF0070C0FE0DFF8A4C0604550
:1007100002D14FF0080C08E0DFF898C0604502D124
:100720004FF0090C01E04FF00A0C0CFA07FC4CEA00
:10073000040CC6F808C42C684E6824EA0304F603C7
:1007400000D51C432C606C684E6824EA0304B60391
:1007500000D51C436C604FF0B0444F682668FF0220
:1007600026EA030600D51E4326604F686668BF026E
:1007700026EA030600D51E436660521C102AFFF4C9
:100780002BAFBDE8F88F000080000058F4440258F9
:10079000000002580004025800080258000C0258D9
:1007A000001002580014025800180258001C025889
:1007B0000020025800240258014880687047000059
:1007C0001800002402488168027811448160704753
:1007D00018000024032010B500F058F8002000F0A5
:1007E00007F808B1012010BD00F022F8002010BD6C
:1007F00070B50D4D04464FF47A700C4A2978126892
:10080000B0FBF1F0B2FBF0F001F03EFC48B9102C67
:1008100007D200222146501E00F018F800206C601C
:1008200070BD012070BD00001800002424000024C9
:10083000054808B5016841F002010160006800F058
:100840000200009008BD0000F44402580E4BF0B4C2
:100850001B680D46C3F30223C3F10706042E00D91B
:100860000426191D072901D2002300E0DB1E012404
:1008700004FA06F19C40491E2940641E9940144028
:100880002143F0BC02F036BC0CED00E0064900F05C
:10089000070210B54FF6FF040868044B204040EAF9
:1008A00002201843086010BD0CED00E00000FA05BE
:1008B0002DE9F84F17468B460446FFF77DFF824629
:1008C00094F8400001280ED001264FF0000884F86B
:1008D000406094F84100012807D0022584F8408048
:1008E0002846BDE8F88F0220FBE74FF00209C4F864
:1008F000448084F8419000222021534620460097EE
:1009000001F0A7FD0500E9D100225946204601F07B
:1009100086FCDBF8240058B9012253460221204608
:10092000009701F096FD0500D8D12168C1F80C9020
:1009300084F84160D2E700002DE9F84F0446FFF744
:100940003BFF064664B194F8400001280BD0002517
:100950004FF0010A84F840A094F8410028B10CE05F
:100960000120BDE8F88F0220FBE784F840502046C4
:1009700000F0A0F841F28830A06421684FF4706262
:10098000A06892FAA2F30A68401EB3FA83F322F435
:100990007062984002430A60A06C00222021334616
:1009A0000090204601F055FDB0BB23684FF07F4218
:1009B000666892FAA2F7E168D4E907C299461B6813
:1009C000B7FA87F8164F41EA0C0106FA08F63243E7
:1009D00011434FF4F8123B4092FAA2F21943C9F8BE
:1009E0000010B2FA82FC2268D4E904310D4FA669E6
:1009F000D2F8048003FA0CF308EA0708314348EA06
:100A0000030841EA0801516021680A6842F00103C5
:100A10000B60656484F841A084F84050A1E70000B1
:100A20002FFFFF00FEF8E0FF2DE9F8431646884649
:100A30000446FFF7C1FE034694F8400001280ED09B
:100A4000012084F84000002794F84100012808D0D4
:100A50005FF0020584F840702846BDE8F883022064
:100A6000FBE7A06C8221676484F8411000222021FA
:100A70000090204601F0EDFC0500EBD12068726883
:100A8000016821F0080111430160706808280AD14B
:100A900022681021306810632068C16020680168F6
:100AA00041F4801101604FF040624146204601F060
:100AB000B6FBCFE7F0B587B0044614216846FFF7D0
:100AC000DFFC2A49206888424DD12948016841F459
:100AD00080410160006800F48040059024480C309B
:100AE000016841F010010160016801F010010591F9
:100AF000016841F002010160016801F00201059105
:100B0000016841F008010160006800250427009792
:100B10000224694600F00800CDE901450926039446
:100B2000CDE904601348FFF74DFD00976946124F69
:100B3000CDE90145CDE903463846FFF743FD4FF4C3
:100B4000605069468DE831000C48CDE90346FFF757
:100B500039FD40200A218DE83100CDE90341694685
:100B60003846FFF72FFD07B0F0BD000000500052DF
:100B7000D44402580010025800040258000C0258D5
:100B80002DE9F84F15460E460446FFF715FE82463E
:100B90002068816994F8403000F12009012B0DD0C4
:100BA00001274FF0000884F8407094F84120012A92
:100BB00006D0022084F84080BDE8F88F0220FBE7D1
:100BC000C4F844809EB3222284F841200269521C5A
:100BD000A2630269521C62632663426922F040628A
:100BE00042F080624261206881610DE0062120466A
:100BF00001F02FFCC0B999F80020206B411C216343
:100C00000270A06B401EA063A06B53464FF0010220
:100C100000950028EAD14FF00201204601F019FCAE
:100C200010B922680221D16084F84170C2E7FFE761
:100C3000616C012041F008016164BBE72DE9F84FC8
:100C400015460E460446FFF7B7FD94F8401082465D
:100C50002068012900F120090ED001274FF000087B
:100C600084F8407094F84110012907D05FF0020029
:100C700084F84080BDE8F88F0220FBE7C4F8448088
:100C80007EB3122184F841100169491CE1620169B7
:100C9000491CA1626662416921F0406141610DE039
:100CA0000421204601F0D5FBC0B9606A411C616295
:100CB000017889F80010E06A401EE062E06A53465D
:100CC0004FF0010200950028EAD14FF002012046C2
:100CD00001F0BFFB10B922680221D16084F8417095
:100CE000C6E7FFE7616C012041F008016164BFE7DE
:100CF00010B500F0DDFE08494FF480730A6893FADE
:100D0000A3F3064902F47062B3FA83F3DA40044BAA
:100D10009A5CD040086010BD18440258240000249A
:100D20002E33000810B500F07DFE07491022096837
:100D300092FAA2F201F07001B2FA82F2D140034AB3
:100D4000515CC84010BD0000204402582E330008FA
:100D5000424A30B5414D141D13681435DFED400A89
:100D60001268291FB7EE001A24682D6813F00303D8
:100D700004F01004C2F30532C5F3CC0515FB04F4EE
:100D800000EE104AB8EE400A05D0364C012B5DD07B
:100D9000022B5BD159E0314C334B283C2568AD0622
:100DA00015D525680C68C5F3C105C4F30804EB40EC
:100DB00001EE904AB3FBF2F2F8EE611A40EE201A0F
:100DC00000EE102A71EE810AB8EE400A10E00C68BD
:100DD000B3FBF2F2C4F3080401EE904AB8EE612AC4
:100DE00001EE902A00EE202AB8EE610A72EE010AA6
:100DF0000A6820EE200AC2F34622521C00EE902A16
:100E0000F8EE600A80EE201AFCEEC10AC0ED000A7E
:100E10000A68C2F30642521C00EE902AF8EE600AFD
:100E200080EE201AFCEEC10AC0ED010A0968C1F388
:100E30000661491C00EE901AF8EE600A80EE201A56
:100E4000BCEEC10A80ED020A30BD084C0B68B4FB51
:100E5000F2F2C3F3080301EE903ABFE728440258C8
:100E60000000003900093D000090D00340787D016A
:100E7000424A30B5414D141D13681C35DFED400A60
:100E80001268291FB7EE001A24682D6813F00303B7
:100E900004F48074C2F30552C5F3CC0515FB04F4C9
:100EA00000EE104AB8EE400A05D0364C012B5DD05A
:100EB000022B5BD159E0314C334B283C2568AD0601
:100EC00015D525680C68C5F3C105C4F30804EB40CB
:100ED00001EE904AB3FBF2F2F8EE611A40EE201AEE
:100EE00000EE102A71EE810AB8EE400A10E00C689C
:100EF000B3FBF2F2C4F3080401EE904AB8EE612AA3
:100F000001EE902A00EE202AB8EE610A72EE010A84
:100F10000A6820EE200AC2F34622521C00EE902AF4
:100F2000F8EE600A80EE201AFCEEC10AC0ED000A5D
:100F30000A68C2F30642521C00EE902AF8EE600ADC
:100F400080EE201AFCEEC10AC0ED010A0968C1F367
:100F50000661491C00EE901AF8EE600A80EE201A35
:100F6000BCEEC10A80ED020A30BD084C0B68B4FB30
:100F7000F2F2C3F3080301EE903ABFE728440258A7
:100F80000000003900093D000090D00340787D0149
:100F90002DE9FC5F044650F8241B002500902E46E6
:100FA0000801FE4FDFF8F8931DD5606E50B1B0F523
:100FB000801F0CD0B0F5001F0ED0B0F5401F1DD023
:100FC00001250FE0386840F40030386016E0022157
:100FD000201D01F063FA03E00098022101F0DCFA21
:100FE00005000BD02E462088C00523D5606D05284E
:100FF0001ED2DFE800F00C11161B1B00626ED9F840
:10100000001021F440111143C9F80010EBE73868D3
:1010100040F40030386009E00021201D01F03EFA64
:1010200003E00098002101F0B7FA05466DB100E039
:1010300001252E432088800528D5A06D80281ED04C
:101040000CDC90B140280ED114E0626DD9F800108C
:1010500021F007011143C9F80010EBE7C02813D0B5
:10106000B0F5807F10D001250FE0386840F40030E3
:10107000386009E00021201D01F010FA03E000981B
:10108000002101F089FA054695B12E432088DFF84A
:101090001083400508F108082CD5D4F8A400B0F559
:1010A000800F20D00DDCA0B1B0F5001F0FD115E0EE
:1010B000A26DD9F8001021F4E0711143C9F80010B5
:1010C000E4E7B0F5C00F13D0B0F5000F10D0012544
:1010D0000FE0386840F40030386009E00021201D3E
:1010E00001F0DCF903E00098002101F055FA054613
:1010F00075B12E43208800052DD5D4F8A800B0F195
:10110000007F21D00EDCA8B1B0F1807F10D116E0B5
:10111000D4F8A420D8F8001021F460011143C8F8D5
:101120000010E7E7B0F1407F13D0B0F1806F10D02E
:1011300001250FE0386840F40030386009E00021F4
:10114000201D01F0ABF903E00098002101F024FA22
:1011500005466DB12E43206880011FD5A06CD8B123
:1011600010280FD0202812D0302815D0012514E0E7
:10117000D4F8A820D8F8001021F0E0611143C8F895
:101180000010E8E7386840F40030386004E00221DD
:10119000201D01F083F905466DB12E432088C0045F
:1011A0002BD5E06DB0F5005F20D00DDCA0B1B0F51F
:1011B000805F0FD115E07A48A26C001F016821F012
:1011C000300111430160E9E7B0F5405F13D0B0F59D
:1011D000804F10D001250FE0386840F400303860AF
:1011E00009E00021201D01F059F903E000980021D9
:1011F00001F0D2F9054685B12E432088800429D517
:10120000206EB0F5403F23D010DC08B3B0F5803F2E
:1012100014D0B0F5003F0FD115E0E26DD9F8001001
:1012200021F4E0411143C9F80010E6E7B0F5802F42
:101230000ED0B0F5A02F0BD001250AE00121201D12
:1012400001F02CF903E00098012101F0A5F9054611
:101250008DB12E43208840042AD5D4F8AC00B0F1DB
:10126000405F23D010DC08B3B0F1805F14D0B0F140
:10127000005F0FD115E0226ED9F8001021F4E021B3
:101280001143C9F80010E5E7B0F1804F0ED0B0F17E
:10129000A04F0BD001250AE00121201D01F0FEF82E
:1012A00003E00098012101F077F905466DB12E4366
:1012B000208800041FD5E06ED8B1B0F1805F0ED059
:1012C000B0F1005F10D0012514E0D4F8AC20D8F8BC
:1012D000001021F0E0411143C8F80010E8E7386839
:1012E00040F40030386004E00121201D01F0D6F800
:1012F00005466DB12E432068C0011ED5606CD0B18B
:1013000001280ED0022811D0032814D0012513E0A3
:10131000E26ED9F8001021F040511143C9F80010D5
:10132000E9E7386840F40030386004E00221201D0D
:1013300001F0B4F8054685B12E432068DFF85CB0B3
:101340004002ABF11C0B1FD51648016841F48071B7
:101350000160FFF731FA824610E01148626C001F0D
:10136000016821F0030111430160E6E7FFF724FA69
:10137000A0EB0A00642801D9032504E009480068AD
:10138000C005F3D5C5B12E432078DFF814A0C007FF
:101390000AF1040A79D0A06F182805E02C440258FD
:1013A00050440258004802586DD05BDCC0B3082896
:1013B0005ED010285AD161E0DFF880A4B4F8B010F4
:1013C000DAF8000001F4407100F44070884211D056
:1013D000DAF80010DAF8002021F4407142F480328B
:1013E000CAF80020DAF8002022F48032CAF800207F
:1013F000CAF80010D4F8B000B0F5807F15D1FFF71F
:10140000DBF901900DE000BFFFF7D6F90199411A11
:1014100041F28830814204D9032546F00306B3E740
:1014200031E0DAF800008007EED5D4F8B010C1F34F
:101430000120032858460DD0016821F47C51016039
:10144000B4F8B020DAF80010C2F30B021143CAF866
:10145000001099E7FA4A036802EA111223F47C515A
:101460001143ECE720280ED028280CD001250BE0F2
:101470000121201D01F012F804E006E0009801218E
:1014800001F08AF805465DB12E43207880071ED50D
:10149000606F062819D2DFE800F0160C1116161638
:1014A000A26FDAF8001021F038011143CAF80010D9
:1014B000EBE70121201D00F0F1FF03E0009801217E
:1014C00001F06AF8054675B100E001252E43207849
:1014D00040071FD5D4F89000062819D2DFE800F0A5
:1014E000160C11161616626FDAF8001021F00701BB
:1014F0001143CAF80010EAE70121201D00F0CEFFD9
:1015000003E00098012101F047F805469DB100E095
:1015100001252E43207880062BD5D4F88C00B0F11D
:10152000405F24D011DC10B3B0F1805F15D0B0F172
:10153000005F10D116E0D4F89020D8F8001021F008
:1015400007011143C8F80010E4E7B0F1804F0ED056
:10155000B0F1A04F0BD001250AE00021201D00F0C2
:101560009DFF03E00098022101F016F805468DB1B9
:101570002E43207840062BD5D4F89800B0F5406F64
:1015800024D011DC10B3B0F5806F15D0B0F5006F2A
:1015900010D116E0D4F88C20DAF8001021F0E041E8
:1015A0001143CAF80010E4E7B0F5805F0ED0B0F543
:1015B000A05F0BD001250AE00021201D00F06EFF86
:1015C00003E00098022100F0E7FF05468DB12E43AD
:1015D000207800062BD5D4F89C00B0F5C04F24D05D
:1015E00011DC10B3B0F5005F15D0B0F5804F10D10D
:1015F00016E0D4F89820D8F8001021F4E0511143F7
:10160000C8F80010E4E7B0F5004F0ED0B0F5204F59
:101610000BD001250AE00021201D00F03FFF03E070
:101620000098022100F0B8FF054665B32E432078EC
:1016300000070BD5D4F88010B1F5805F2DD0DAF813
:10164000002022F440520A43CAF800202078C00645
:101650000BD5D4F89410B1F5807F24D0D8F80020B1
:1016600022F440720A43C8F80020206800032CD5F9
:10167000D4F8A000E8B1B0F5803F1FD0B0F5003F2E
:1016800021D0012520E0D4F89C20D8F8001021F4C6
:1016900060411143C8F80010C9E70098022100F02A
:1016A0007BFF0643D2E70098022100F075FF064356
:1016B000DBE70021201D00F0F1FE03E0009802218D
:1016C00000F06AFF054685B12E432068400322D50D
:1016D000D4F88400B0F5801F11D0B0F5001F13D0EE
:1016E000B0F5401F15D0012514E0D4F8A020D8F89B
:1016F000001021F440311143C8F80010E5E73868C4
:1017000040F40030386004E00098012100F044FF0C
:10171000054655B12E432068C0031CD5E06C70B15E
:10172000B0F5803F10D0012514E0D4F88420DAF819
:10173000001021F440111143CAF80010EBE738689B
:1017400040F40030386004E00221201D00F0A6FEC5
:101750000546C5B12E432068800004D500980221BB
:1017600000F01AFF0643206880031BD5E06FB8B174
:10177000B0F5807F10D0B0F5007F11D0B0F5407F7C
:101780000ED001250DE02D48E26C2438016821F4CB
:10179000803111430160DEE7386840F40030386082
:1017A000F5B32E432068C00207D5226FD9F8001088
:1017B00021F000411143C9F800102068C00008D58D
:1017C000D4F8B420DBF8001021F480411143CBF8A9
:1017D00000102068800207D5A26ED9F8001021F011
:1017E00080711143C9F80010206840000CD5DBF867
:1017F000001021F40041CBF80010DBF80010D4F801
:10180000B8201143CBF800102068002807DA0B48F5
:10181000226D2438016821F040511143016000E03D
:1018200003E07EB10120BDE8FC9FE26FDAF8001012
:1018300021F440711143CAF80010B3E77044025814
:10184000CFFFFF000020EEE72DE9F047DFF8C4915D
:1018500004460E46D9F8000000F00700B0420CD252
:10186000D9F8001021F007013143C9F80010D9F868
:10187000000000F00700B04272D12078DFF89881B4
:10188000800707D5E268D8F8001021F00F01114356
:10189000C8F800102078C00767D05F49A368D8F85F
:1018A0000020183922F470621A43C8F800206068DA
:1018B00002281CD003281DD0096801281DD0490723
:1018C000002963DA544D083D296821F007010143DE
:1018D0002960FEF771FF6168074641F288300229EE
:1018E00014D0032920D0012982462AD039E0096882
:1018F0008903E5E709688901E2E7C905E0E700BF78
:10190000FEF75AFFC11B514501D926E082462868DF
:10191000C0F3C2000228F3D127E000BFFEF74CFF5E
:10192000C11B514501D918E082462868C0F3C200A6
:101930000328F3D119E000BFFEF73EFFC11B51455C
:101940000BD82868C0F3C2000128F5D10DE000BF14
:10195000FEF732FFC11B514503D90320BDE8F087D4
:1019600014E0286810F0380FF2D1D9F8001048467A
:1019700001F00701B1420BD9016821F007013143A1
:101980000160006800F00700B04201D00120E5E7E7
:101990002078400707D52269D8F8001021F070019F
:1019A0001143C8F8001021781B48001D090705D510
:1019B0006269016821F07001114301602178C90654
:1019C00005D5A269016821F4E06111430160207826
:1019D000800607D51048E2690830016821F07001DF
:1019E0001143016000F064F8D8F800104FF48072E1
:1019F00092FAA2F201F47061B2FA82F2D140074A7F
:101A0000515CC840064908600020FEF7F1FE002046
:101A1000A4E7000000200052184402582E330008AA
:101A20002400002410B5FFF763F9084901230A6870
:101A300093FAA3F3064902F00F02B3FA83F3DA40F4
:101A4000044B9A5CD040086010BD00001844025856
:101A5000280000242E33000810B5FFF7E3FF0749E4
:101A60001022096892FAA2F201F07001B2FA82F231
:101A7000D140034A515CC84010BD00001C440258CC
:101A80002E33000810B5FFF7CDFF07494FF48072E1
:101A9000096892FAA2F201F4E061B2FA82F2D1404E
:101AA000024A515CC84010BD1C4402582E33000845
:101AB0004749F0B547480968454B103B11F03804D9
:101AC00009D00111082C04D0434A102C0BD0182C3B
:101AD0000BD00846F0BD19688906FBD51968C1F31B
:101AE000C101C840F0BD1046F0BD394CDFF8E0C080
:101AF0001834261D0CF1240C2768351D2468DFEDF1
:101B0000370AB7EE001A3668DCF800C017F0030792
:101B100006F00106C4F30514CCF3CC0C1CFB06F64E
:101B200000EE106AB8EE400A09D0012F01D0022F52
:101B30003BD02868B1FBF4F1C0F308003AE0196823
:101B4000890615D51A682968C2F3C102C1F30801D4
:101B5000D04001EE901AB0FBF4F0F8EE611A40EEBE
:101B6000201A00EE100A71EE810AB8EE400A0BE06E
:101B70002968B0FBF4F0C1F3080101EE901AB8EE49
:101B8000612A01EE900A1BE020EE200A2868C0F3CB
:101B90004620401C00EE900AF8EE600A80EE201A03
:101BA000BCEEC10A10EE100AF0BD2868B2FBF4F1D9
:101BB000C0F3080001EE900AB8EE612A01EE901A17
:101BC00000EE202AB8EE610A72EE010ADCE700009E
:101BD000104402580090D00340787D010000003985
:101BE0002DE9F047FF4C05460078DFF8F883103CFC
:101BF000FC4FC00708F118084CD03868C0F3C20089
:101C000002281AD03868C0F3C200032805D1D8F8DA
:101C1000000000F0030002280FD06868B0F5803F94
:101C200012D010B1B0F5A02F18D0206820F4803069
:101C30002060206820F4802009E02068800329D5F6
:101C40006868002876D025E0206840F48030206065
:101C5000686890B1FEF7B0FD06460AE0206840F4DF
:101C600080202060F0E700BFFEF7A6FD801B6428FF
:101C70007ED820688003F7D50CE0FEF79DFD064670
:101C800005E000BFFEF798FD801B6428F0D82068AF
:101C90008003F7D42878D34E0C3E80075DD5386892
:101CA0004FF47C3A10F0380F13D03868C0F3C200FC
:101CB000032803D1D8F8000080070AD0E868C0B331
:101CC000216821F0190101432160FEF775FD81466D
:101CD00020E02068400702D5E8680028B2D0E96813
:101CE000206820F0190008432060FEF765FD81465A
:101CF00006E000BFFEF760FDA0EB09000228B7D8A0
:101D000020684007F6D508E0FEF756FDA0EB090075
:101D10000228ADD820684007F6D5286932689AFABB
:101D2000AAF1B1FA81F1884022F47C31014331609B
:101D300013E000E0AAE0206820F001002060FEF738
:101D40003BFD814606E000BFFEF736FDA0EB090033
:101D500002288DD820684007F6D42878C00649D5D7
:101D600038684FF0F84AC0F3C200012817D000E0ED
:101D7000DAE03868C0F3C200032805D1D8F80000C3
:101D800000F0030001280AD0E8690028206822D06A
:101D900040F080002060FEF70FFD81460CE02068D7
:101DA000C0050CD5E869802870D108E0FEF704FD75
:101DB000A0EB09000228A2D82068C005F6D5286A41
:101DC00032689AFAAAF1B1FA81F1884022F0F8411A
:101DD000014331600EE020F080002060FEF7ECFC53
:101DE000064604E0FEF7E8FC801B022887D820683E
:101DF000C005F7D42878000729D57A486969643086
:101E000000298146016811D041F001010160FEF70F
:101E1000D3FC064605E000BFFEF7CEFC801B02287F
:101E200097D8D9F800008007F6D510E021F001011D
:101E30000160FEF7C1FC064605E000BFFEF7BCFCF2
:101E4000801B022870D8D9F800008007F6D42878C3
:101E5000800625D5A8690028206810D040F480505D
:101E60002060FEF7A9FC064605E000BFFEF7A4FCD3
:101E7000801B022858D820688004F7D510E020F491
:101E800080502060FEF798FC064606E0D7E000BFD1
:101E9000FEF792FC801B022846D820688004F7D405
:101EA000287840074FD5DFF84091D9F8001041F469
:101EB0008071C9F80010FEF77FFC064605E000BF00
:101EC000FEF77AFC801B64282ED8D9F80000C005E4
:101ED000F6D5444EA868603601280AD008B1052816
:101EE00013D0306820F001003060306820F004002A
:101EF00002E0306840F001003060A86841F2883AA2
:101F000098B1FEF759FC81460AE0306840F00400C1
:101F10003060EEE7FEF750FCA0EB0901514503D815
:101F200030688007F6D50EE088E0FEF745FC814674
:101F300006E000BFFEF740FCA0EB090151457DD84B
:101F400030688007F6D4686AE8B33968C1F3C20123
:101F5000032974D00228206820F08070206003D00C
:101F6000FEF72AFC054685E0FEF726FC064604E05F
:101F7000FEF722FC801B022879D820688001F7D464
:101F8000EB6A40F2F332D8F800104FF4FE0755F830
:101F9000286F914341EA03113143C8F80010287BB0
:101FA0004FF0FE4C0F4EB5F8088040022B8A2036C9
:101FB0002A7DA8F10108311DA0F5007080B25B1EDA
:101FC000C8F3080800E058E0521E07EA034340EA5D
:101FD000080018434FF6F8730CEA026210433060B1
:101FE0000A6803E0104402580048025893FAA3F725
:101FF0002E6A24489A43B7FA87F7BE4032430A60F4
:102000000168AA6921F00C01114301600168EA69C5
:1020100021F0020111430160016841F48031016047
:10202000016841F400310160016841F480210160E0
:10203000016841F001010160206801E017E01EE045
:1020400040F080702060FEF7B7FB054605E000BF5A
:10205000FEF7B2FB401B022809D820688001F7D5A3
:102060000BE000BFFEF7A8FB401B022802D90320AB
:10207000BDE8F08720688001F4D40020F8E7012053
:10208000F6E700002C440258401EB0F1807F10B5E6
:1020900001D3012010BD4FF0E02460610F216017D3
:1020A00001F028F80020A0610721216110BD10B5C2
:1020B000040003D094F8790010B107E0012010BDAE
:1020C000002084F87800204600F026F8242084F8C8
:1020D00079002068016821F001010160204600F0CC
:1020E00005FC0128EBD0606B10B1204600F06CFBC2
:1020F0002068416821F4904141602068816821F0A6
:102100002A0181602068016841F0010101602046D8
:10211000BDE8104000F0BCBB10B586B004461421E9
:102120006846FEF7ADF913492068884220D112486D
:10213000016841F010010160006800F01000059096
:102140000D481038016841F0010101600068072363
:10215000022200F00100059000204FF4C0610091C0
:102160006946CDE90120CDE903030448FEF72AFAC8
:1021700006B010BD00100140F044025800000258A3
:10218000FEE70000154808B5016841F01001016044
:10219000016801F010010091016841F080010160C7
:1021A000016801F080010091016841F002010160C5
:1021B000016801F002010091016841F0080101602D
:1021C000016801F008010091016841F0010101601E
:1021D000006800F00100009008BD0000E0440258D3
:1021E0000C48002130B40A4C0C224FF4E133046057
:1021F000C0E90131C160C0E904128161C1610162BD
:1022000041628162C1620163416330BCFFF74FBF2D
:102210000010014078000024FEE7704770472DE968
:10222000F0474B6A4FF040692BB14A4503D0046830
:102230008B6A5B1E23614FF4F8048D690B6A002DD5
:1022400073D07BB303688D68DD61CB694D6BB3F1EF
:10225000000A28D094FAA4F44F6AD1E90B3CD1E9E2
:102260000486B4FA84F43D43CF6843EA0C03D1F802
:1022700020C0A6402B438D6933430E6843EA080310
:10228000046843EA0C0343EA070343EA0A0343EA08
:1022900005034A4543EA0603C4E0006849688161D2
:1022A000BDE8F08719E0D1E90B3894FAA4F443EAC9
:1022B0000803D1E90887B4FA84F43D43D1E90567FE
:1022C000D1F810C02B430968A6403343006843EAA5
:1022D0000C0343EA08033B433CE0CE6936B3D1E943
:1022E0000B3CD1F824804F6B43EA0C0394FAA4FC16
:1022F0004C6947EA0807D1F80C80BCFA8CFC3B43D8
:102300000F6804FA0CF42343D0F800C043EA080332
:1023100043EA060343EA050343EA07034A4543EA5F
:102320000203CCF81430B8D1BAE717E094FAA4F459
:10233000D1F82480D1E90B3C4F69B4FA84F44E6B98
:1023400043EA0C03096846EA08060068A7403343DD
:102350003B432B430B4313434361A1E7EBB30368B8
:102360008D68DD61CD6935B3D1E90B3C94FAA4F4F5
:10237000D1F824804E6B43EA0C03D1E904C7B4FAC8
:1023800084F446EA0806D1F8208033438E69A740DA
:102390003B43CC6843EA0C03076843EA080343EA7B
:1023A000040343EA050343EA06034A4543EA0203FA
:1023B0007B61B8D174E7D1E90B374D6BD1E9048665
:1023C0003B43006894FAA4F7D1E9084C8969B7FA4D
:1023D00087F745EA0C052B4300E005E0BE40334398
:1023E00043EA08032343B5E7CB69B3F1000A1ED0E3
:1023F00001F12C03D1F824C094FAA4F84D690468C3
:10240000C8CB3343CE6847EA0C07B8FA88FC4A4584
:1024100005FA0CF543EA070343EA050343EA06031A
:1024200043EA0A0343EA02036361C2D138E74D6A13
:10243000002D92D0D1E90B374E6B94FAA4F4496980
:10244000B4FA84F400683B432E43A14033430B436A
:1024500081E72DE9F041984616460F460446069D51
:1024600012E0681C10D02DB1FEF7A6F9A0EB080011
:10247000A84209D9042084F84100606C40F00100B2
:1024800060640120BDE8F08120688068384000D099
:102490000120B042E5D10020F4E700002DE9F0472B
:1024A0003C4E044689464FF0000A3068C04380071E
:1024B0000AD0384D283D286820F080602860FEF75B
:1024C0007BF90746A84608E00120BDE8F08700BF79
:1024D000FEF772F9C01B022855D8D8F80000000199
:1024E000F6D4206831684FF4FE0C4FF0FE4721F41B
:1024F0007C3141EA00303060207AA688A38940020E
:10250000244D761E23495B1E227C1035091DA0F543
:10251000007080B2521EC6F3080630430CEA034333
:10252000184307EA0262104328600868626920F0D5
:10253000C000104308600868A26920F02000104322
:102540000860B9F1000F11D00868B9F1010F11D07E
:1025500040F400100860D8F80000444640F0806065
:10256000C8F80000FEF728F905460EE0086840F4B8
:102570000020EFE740F48010ECE700BFFEF71CF905
:10258000401B022801D903209FE720680001F5D5F0
:1025900050469AE7284402582DE9F0473C4E04463D
:1025A00089464FF0000A3068C04380070AD0384D92
:1025B000283D286820F080502860FEF7FDF8074687
:1025C000A84608E00120BDE8F08700BFFEF7F4F858
:1025D000C01B022855D8D8F800008000F6D4208807
:1025E00031684FF4FE0C4FF0FE4721F07C7141EA58
:1025F00000503060207AA688A3894002244D761EC0
:1026000023495B1E227C1835091DA0F5007080B29D
:10261000521EC6F3080630430CEA0343184307EA88
:102620000262104328600868626920F44060104329
:1026300008600868A26920F4007010430860B9F1CE
:10264000000F11D00868B9F1010F11D040F080706F
:102650000860D8F80000444640F08050C8F80000F8
:10266000FEF7AAF805460EE0086840F48000EFE7A0
:1026700040F40000ECE700BFFEF79EF8401B022884
:1026800001D903209FE720688000F5D550469AE7DE
:10269000284402587047FEF795B8000030B5CBB01B
:1026A0004C212FA8FDF7ECFE202142A8FDF7E8FE03
:1026B000BC216846FDF7E4FE1F48016821F00401D3
:1026C00001601D480C300024016841F44041016064
:1026D000016801F440414A9101688904FCD5022057
:1026E0000121C2034025CDE92F123EAA38900C21CA
:1026F0003990CDE93A053C903D9082E813002FA82F
:102700004194FFF76DFA0822CDE94525D30142AA8D
:102710003F20CDE947530321499582E81300022168
:1027200042A8FFF791F805481E941294009068465D
:10273000FEF72EFC4BB030BD0C48025801000002E1
:102740001D4AF0B51D49146800201C4B44F4700468
:10275000146010330A681A4C42F001020A601860D3
:102760000D68164A25400D601832131D1C1D134DAF
:102770001060283518602A1D2060131D1C1D28605C
:10278000251D10602A1D1860131D20601C1D286067
:102790001060186020600A680124084B064FE606A6
:1027A000084D6033803F22F480220A601860C5F82B
:1027B00008413E60F0BD000088ED00E00044025892
:1027C0007FEDF6EA0080005190F83410C90706D07A
:1027D0000168836B4A6822F400321A434A6090F819
:1027E0003410890706D50168C36B4A6822F4803229
:1027F0001A434A6090F83410490706D50168036C03
:102800004A6822F480221A434A6090F8341009077B
:1028100006D50168436C4A6822F400421A434A60B4
:1028200090F83410C90606D50168836C8A6822F4D2
:1028300080521A438A6090F83410890606D50168E0
:10284000C36C8A6822F400521A438A6090F83410EC
:10285000490611D50168036D4A6822F480121A43B3
:102860004A60016DB1F5801F06D10168436D4A6869
:1028700022F4C0021A434A6090F83410090606D5C3
:102880000168826D486820F400201043486070475A
:10289000F8B500260446C667FDF78EFF054620689A
:1028A0006FF07E470068000708D500222B464FF4E2
:1028B00000112046009700F08DFA60B9206800688A
:1028C00040070AD500222B464FF48001204600978E
:1028D00000F080FA08B10320F8BD202084F87900C8
:1028E00084F8786084F87A000020F8BD2DE9F04F74
:1028F00004460268816887B0C369D4E90465806AC8
:102900003143F84E1D4313682943DFF8DC93084335
:102910008025334000210343136020680F46E3689D
:10292000426822F440521A4342602368A0694B4532
:1029300001D0226A1043A26AB2F1005F03D1D4E948
:102940000B2632431043D3F808C0DFF8A083E84ECB
:10295000E84A0CEA080C4CEA000CC3F808C02068EE
:10296000D4F824C0C36A23F00F0343EA0C03C36204
:102970002068B04210D1126802F03802182A74D0D0
:1029800005DCCAB3082A7AD0102A47D179E0202A78
:102990007BD0282A7CD17AE0D74B984209D11268A3
:1029A00002F00702062A73D2DFE802F053696B6D6A
:1029B0006F71D24B984209D1126802F00702062AC1
:1029C00066D2DFE802F0465C5E606264CC4B9842FF
:1029D00009D1126802F00702062A59D2DFE802F094
:1029E000394F51535557C74B98420BD1126802F0DB
:1029F0000702062A4CD200E00EE0DFE802F02A408F
:102A000042444648C04B984209D1126802F038024D
:102A1000182A38D0BBDCB4E74FF0010538E0BB4BD7
:102A2000984209D1126802F00702062A30D2DFE884
:102A300002F01026282A2C2EB54B98420BD1126892
:102A400002F00702062A23D2DFE802F003191B1D59
:102A50001F2100251CE048451AD1A64A121D126804
:102A600002F00702062A13D202E00CE007E00CE0B5
:102A7000DFE802F0030507090B0D022508E0042535
:102A800006E0402504E0082502E0102500E02025AE
:102A9000A04EDFF884A24845DFF880B27DD1102D2A
:102AA00031D006DC022D09D0042D0AD0082D2FD1FB
:102AB00011E0202D29D0402D2AD107E0FEF732F970
:102AC00013E06846FEF744F901980EE003A8FEF70C
:102AD000CFF9049809E0DBF800005946800610D5CC
:102AE0000968C1F3C1012AFA01F0002811D0616818
:102AF000894601EB410181420AD8B0EB093F07D872
:102B000008E05046F3E78648F1E74FF40040EEE76F
:102B1000012759E1102D4FF000085BD006DC022D93
:102B200011D0042D20D0082D04D13AE0202D57D00B
:102B3000402D1ED001277B4AA0F540719142E7D875
:102B40002168C86040E1FEF7EDF8626A0023414663
:102B500036F81220FDF711FC6268090241EA1061A3
:102B6000034650081B0216E06846FEF7F1F801988C
:102B700003E003A8FEF77CF904980023616A36F8A5
:102B800011201946FDF7F9FB626803461D0E500837
:102B90001B0245EA0121181800E036E041EB08016C
:102BA00014E0DBF800005946800609D509680023C7
:102BB000C1F3C1012AFA01F0616A36F8112015E06B
:102BC000606A002336F8102050460FE00023FDF71E
:102BD000D4FBB0E7606A002336F81020504805E0C7
:102BE000606A002336F810204FF400400021FDF702
:102BF000C4FB02464FEA5900130E120210184A464F
:102C000043EA012141EB0801E0E7E3694FF40042A8
:102C1000934257D1082D2BD005DC95B1012D13D04F
:102C2000042D06D118E0102D3DD0202D43D0402D8D
:102C300018D00127226821F00F00C1F34201084398
:102C40009CE0FEF709FF01E0FEF71CFF0146606A09
:102C500036F8102060682BE06846FEF779F8626A63
:102C6000019922E003A8FEF703F9626A04991CE0C7
:102C7000DBF800105846626A890608D5036836F802
:102C800012206068C3F3C1032AFA03F110E036F89A
:102C900012206068BAFBF2F1490001EB5001B1FB70
:102CA000F0F081B2C6E71E49626A606836F8122009
:102CB000B1FBF2F1F0E7616A606836F81110B2FB1F
:102CC000F1F1E9E7082D5BD02EDC55B1012D46D09E
:102CD000042D7FF41DAF6846FEF73AF8626A019949
:102CE0002DE039E0F369FFCF000C0058FFF4FF112D
:102CF0000010014054440258004400400048004085
:102D0000004C00400050004000140140007800409A
:102D1000007C0040163300080090D00300440258A5
:102D200000093D00FFFC0F00102D3ED0202D3FD0AC
:102D3000402DCED103A8FEF79BF8626A0499D4E92E
:102D4000003036F81220B1FBF2F101EB5001B1FB7B
:102D5000F0F080B2D86037E0FEF77EFE01E0FEF7CB
:102D600091FE0146606A36F81030D4E90020B1FBCC
:102D7000F3F101EB5001B1FBF0F080B2D06023E041
:102D8000DBF800205946636A920608D50D68616831
:102D900036F81330C5F3C1042AFA04F20CE036F811
:102DA00013306168BAFBF3F208E0094A636A00E095
:102DB000636A616836F81330B2FBF3F202EB51023A
:102DC000B2FBF1F189B2C16007B03846BDE8F08FBF
:102DD00000093D002DE9F041984617460E4604468D
:102DE000069D1DE0681C1BD02DB1FDF7E5FCA0EB96
:102DF0000800A84214D92168202000220B6823F47F
:102E0000D0730B6021688B6823F001038B6084F81A
:102E1000790084F87A00032084F87820BDE8F081F6
:102E20002068C06936EA000004D00020B842D9D03A
:102E30000020F3E70120F9E7FEE7000030B50220AB
:102E40008FB000F079F88DF8000080070BD40120D6
:102E500000F0ECF89DF8000040F002018DF8001041
:102E6000022000F00DF900204FF480733822CDE9E4
:102E70000730CDE9012059010A9009906422CDE97B
:102E800004100B9001A9039006900C900D900E90E9
:102E90001048FDF70DFD104B01204FF44071C0228A
:102EA0000C04187030250192CDE90A4007918DF885
:102EB000005000F0BBF80748642201A9FDF7F8FCB8
:102EC000002804D1034864226946FDF7B7FE0FB01D
:102ED00030BD00002C0000240000002410B58EB08E
:102EE00000244FF44072FF210994CDE90624CDE976
:102EF00000144FF400500A9408946422CDE90304AE
:102F000002946946054805940B940C940D94FDF7C2
:102F1000CFFC034804700EB010BD00002C0000244C
:102F20000000002410B5FFF7D9FF00F045F8BDE818
:102F30001040FFF783BF000000B51D4A8FB000218D
:102F40008DF8381012781AB14FF44072130402E071
:102F50004FF480721304069209934FF400530791C3
:102F60000122019101280891CDE903310591CDE9B4
:102F70000A2102910C910D914FF0050103D0022816
:102F800003D0032803D0009103E0352000E0152092
:102F90000090084864226946FDF78AFC20B905487C
:102FA00064220EA9FDF7ECFD9DF838000FB000BDBE
:102FB000000000242C000024164800B58FB00078D3
:102FC00010B14FF4407001E04FF480700690002083
:102FD0000790662209904FF400510890CDE9002037
:102FE0000A90CDE90310029005900B900C900D9083
:102FF00000F014F8084864226946FDF759FC0028DF
:1030000006D199200090044864226946FDF750FCDF
:103010000FB000BD000000242C00002410B50120DA
:10302000FFF78AFFC007FAD110BD0000124900B5B2
:103030008FB0097811B14FF4407101E04FF4807105
:10304000069108B1062000E00420009000200790BF
:103050004FF400510190099064220A900890CDE944
:1030600003100290694605900B900C900D90034858
:10307000FDF71EFC0FB000BD000000242C00002452
:1030800003B51A498FB0097819B14FF440710A0499
:1030900002E04FF480710A04069100210992012296
:1030A0000791019153030891CDE903310291012861
:1030B0000591CDE90A210C910D9103D0022803D08E
:1030C000032803D0009203E0312000E0112000909B
:1030D000074864226946FDF7EBFB002804D1044849
:1030E000642210A9FDF7AAFD11B000BD0000002464
:1030F0002C000024090700284FEA116104DB00F1CD
:10310000E02080F80014704700F00F0000F1E0208C
:1031100080F8141D704770470F480022DFED0F0A3A
:10312000B6EE001A90ED000A0D490F4BB8EE400ABA
:103130000C48C0EE201A31EE810ABCEEC00A83EDC5
:10314000000A0B6843F080730B604260016841F035
:10315000010101607047000024000024002474492C
:10316000FCED00E0001000E00C0000240349CA69F7
:103170005206FCD5C2B20A8570470000001001401B
:1031800090B0BFF34F8FBFF36F8FDFF864910025CE
:10319000C9F80050BFF34F8FBFF36F8F554C2068B5
:1031A00040F400302060BFF34F8FBFF36F8FDFF824
:1031B00044B10BF1700BCBF80050BFF34F8FABF164
:1031C000040ADFF82CC143F6FF760CF1100CDAF894
:1031D0000000C0F34E31C0F3C90306EA4117184698
:1031E00047EA8072CCF80020401EF9D2491EF4D282
:1031F000BFF34F8F206840F480302060BFF34F8FC3
:10320000BFF36F8FFDF7E6FAFFF748FAFEF7BAFF54
:103210003A4810211622384F8B014FF001084FF029
:10322000040C80E82E00056145610C3880E88011AF
:10323000FDF782FBFEF7D4FF31A0FDF715F9FFF78C
:103240006BFFFFF76FFE4FF4407106910B22009267
:103250008B0007934FF4005103919A0327480823EA
:1032600005930C386946CDE908520EAA0B950C95CA
:103270000D950F950E95FDF7D7FBBFF34F8FBFF35D
:103280006F8F216821F400312160C9F80050BFF32D
:103290004F8FBFF36F8FCBF80050BFF34F8F206875
:1032A00020F480302060BFF34F8FDAF80000104B1D
:1032B0002433C0F34E32C0F3C90106EA4214084673
:1032C00044EA80771F60401EFAD2521EF5D2BFF347
:1032D0004F8FBFF36F8F4FF0E0204FF0104105612B
:1032E000094A48681060096881F308888047FEE74A
:1032F00050EF00E014ED00E00050005238000024D0
:103300006F6B2E0A00000000100000244FF0407088
:10331000E1EE100A704701000200040006000800F8
:103320000A000C0010002000400080000001000096
:10333000000001020304010203040607080900005B
:1033400060330008000000242C000000D4020008B4
:103350008C3300082C0000242C070000F002000829
:1033600000000000000000000000000090010000CC
:10337000000000000000000001000000100000003C
:0C338000000000000090D0030090D0037B
:040000050800029954
:00000001FF
